{
  "contractName": "ArtWork",
  "abi": [
    {
      "inputs": [
        {
          "internalType": "uint256",
          "name": "ipfsHash",
          "type": "uint256"
        },
        {
          "internalType": "string",
          "name": "name_",
          "type": "string"
        }
      ],
      "stateMutability": "nonpayable",
      "type": "constructor"
    },
    {
      "inputs": [
        {
          "internalType": "address",
          "name": "newOwner",
          "type": "address"
        }
      ],
      "name": "setOwner",
      "outputs": [],
      "stateMutability": "nonpayable",
      "type": "function"
    }
  ],
  "bytecode": "0x608060405234801561001057600080fd5b506040516103073803806103078339818101604052604081101561003357600080fd5b81019080805190602001909291908051604051939291908464010000000082111561005d57600080fd5b8382019150602082018581111561007357600080fd5b825186600182028301116401000000008211171561009057600080fd5b8083526020830192505050908051906020019080838360005b838110156100c45780820151818401526020810190506100a9565b50505050905090810190601f1680156100f15780820380516001836020036101000a031916815260200191505b5060405250505061010061017f565b60405180606001604052803373ffffffffffffffffffffffffffffffffffffffff16815260200183815260200184815250905080600001516000806101000a81548173ffffffffffffffffffffffffffffffffffffffff021916908373ffffffffffffffffffffffffffffffffffffffff1602179055505050506101b6565b6040518060600160405280600073ffffffffffffffffffffffffffffffffffffffff16815260200160608152602001600081525090565b610142806101c56000396000f3fe608060405234801561001057600080fd5b506004361061002b5760003560e01c806313af403514610030575b600080fd5b6100726004803603602081101561004657600080fd5b81019080803573ffffffffffffffffffffffffffffffffffffffff169060200190929190505050610074565b005b3373ffffffffffffffffffffffffffffffffffffffff1660008054906101000a900473ffffffffffffffffffffffffffffffffffffffff1673ffffffffffffffffffffffffffffffffffffffff16141561010957806000806101000a81548173ffffffffffffffffffffffffffffffffffffffff021916908373ffffffffffffffffffffffffffffffffffffffff1602179055505b5056fea2646970667358221220b6edbf6f40368b10d6e86c8cdd5581aaeb10c10eb5f216f1a2e3361c12ea421b64736f6c63430007010033",
  "immutableReferences": {},
  "source": "// SPDX-License-Identifier: MIT\npragma solidity ^0.7.1;\n\nimport \"@openzeppelin/contracts/access/Ownable.sol\";\nimport \"./ERC721Token.sol\";\n\ncontract ArtWork {\n    struct Art {\n        address artist;\n        string name;\n        uint hashIPFS;\n    }\n    address owner;\n\n    \n    constructor(uint ipfsHash, string memory name_) {\n        Art memory _art = Art({\n            artist: msg.sender, \n            name: name_,\n            hashIPFS: ipfsHash\n        });\n    \n        owner = _art.artist;\n    }\n \n    function setOwner(address newOwner) public {\n        if(owner == msg.sender) {\n            owner = newOwner;\n        }\n    }\n}\n\ncontract NFTArt is ERC721Token {\n    mapping (uint => ArtWork) private artworks;\n    address private artist;\n\n    constructor(address _proxyRegistryAddress)\n        ERC721Token(\"GBCArt Token\", \"GBC\", _proxyRegistryAddress){}\n\n    function baseTokenURI() public pure override returns (string memory) {\n        return \"https://opensea-creatures-api.herokuapp.com/api/creature/\";\n    }\n\n     function createArtwork(uint hashIPFS, string memory Name) public returns (ArtWork) {\n        ArtWork artContract = new ArtWork(hashIPFS, Name);\n        artworks[hashIPFS] = artContract;\n        return artContract;\n    }\n\n    function checkArtwork(uint hashIPFS) public view returns(bool) {\n        // ArtWork expectedOriginal = ArtWork(0x0, \"expectedOriginal\");\n        \n        if(artworks[hashIPFS] == ArtWork(address(0x00))) {\n            return true;\n        }\n        return false;\n    }\n}\n",
  "sourcePath": "/Users/mymac/Study/Blockchain Dev - George Brown college/Winter 2021/Design Patterns - Blockchain/published-workspace/nft-lab/contracts/NFTArt.sol",
  "compiler": {
    "name": "solc",
    "version": "0.7.1+commit.f4a555be.Emscripten.clang"
  },
  "schemaVersion": "3.3.3",
  "updatedAt": "2021-02-18T22:30:10.003Z",
  "devdoc": {
    "kind": "dev",
    "methods": {},
    "version": 1
  },
  "userdoc": {
    "kind": "user",
    "methods": {},
    "version": 1
  }
}