{
  "contractName": "NFTArt",
  "abi": [
    {
      "inputs": [
        {
          "internalType": "address",
          "name": "_proxyRegistryAddress",
          "type": "address"
        }
      ],
      "stateMutability": "nonpayable",
      "type": "constructor"
    },
    {
      "anonymous": false,
      "inputs": [
        {
          "indexed": true,
          "internalType": "address",
          "name": "owner",
          "type": "address"
        },
        {
          "indexed": true,
          "internalType": "address",
          "name": "approved",
          "type": "address"
        },
        {
          "indexed": true,
          "internalType": "uint256",
          "name": "tokenId",
          "type": "uint256"
        }
      ],
      "name": "Approval",
      "type": "event"
    },
    {
      "anonymous": false,
      "inputs": [
        {
          "indexed": true,
          "internalType": "address",
          "name": "owner",
          "type": "address"
        },
        {
          "indexed": true,
          "internalType": "address",
          "name": "operator",
          "type": "address"
        },
        {
          "indexed": false,
          "internalType": "bool",
          "name": "approved",
          "type": "bool"
        }
      ],
      "name": "ApprovalForAll",
      "type": "event"
    },
    {
      "anonymous": false,
      "inputs": [
        {
          "indexed": true,
          "internalType": "address",
          "name": "previousOwner",
          "type": "address"
        },
        {
          "indexed": true,
          "internalType": "address",
          "name": "newOwner",
          "type": "address"
        }
      ],
      "name": "OwnershipTransferred",
      "type": "event"
    },
    {
      "anonymous": false,
      "inputs": [
        {
          "indexed": true,
          "internalType": "address",
          "name": "from",
          "type": "address"
        },
        {
          "indexed": true,
          "internalType": "address",
          "name": "to",
          "type": "address"
        },
        {
          "indexed": true,
          "internalType": "uint256",
          "name": "tokenId",
          "type": "uint256"
        }
      ],
      "name": "Transfer",
      "type": "event"
    },
    {
      "inputs": [
        {
          "internalType": "address",
          "name": "to",
          "type": "address"
        },
        {
          "internalType": "uint256",
          "name": "tokenId",
          "type": "uint256"
        }
      ],
      "name": "approve",
      "outputs": [],
      "stateMutability": "nonpayable",
      "type": "function"
    },
    {
      "inputs": [
        {
          "internalType": "address",
          "name": "owner",
          "type": "address"
        }
      ],
      "name": "balanceOf",
      "outputs": [
        {
          "internalType": "uint256",
          "name": "",
          "type": "uint256"
        }
      ],
      "stateMutability": "view",
      "type": "function"
    },
    {
      "inputs": [],
      "name": "baseURI",
      "outputs": [
        {
          "internalType": "string",
          "name": "",
          "type": "string"
        }
      ],
      "stateMutability": "view",
      "type": "function"
    },
    {
      "inputs": [
        {
          "internalType": "uint256",
          "name": "tokenId",
          "type": "uint256"
        }
      ],
      "name": "getApproved",
      "outputs": [
        {
          "internalType": "address",
          "name": "",
          "type": "address"
        }
      ],
      "stateMutability": "view",
      "type": "function"
    },
    {
      "inputs": [
        {
          "internalType": "address",
          "name": "owner",
          "type": "address"
        },
        {
          "internalType": "address",
          "name": "operator",
          "type": "address"
        }
      ],
      "name": "isApprovedForAll",
      "outputs": [
        {
          "internalType": "bool",
          "name": "",
          "type": "bool"
        }
      ],
      "stateMutability": "view",
      "type": "function"
    },
    {
      "inputs": [
        {
          "internalType": "address",
          "name": "_to",
          "type": "address"
        }
      ],
      "name": "mintTo",
      "outputs": [],
      "stateMutability": "nonpayable",
      "type": "function"
    },
    {
      "inputs": [],
      "name": "name",
      "outputs": [
        {
          "internalType": "string",
          "name": "",
          "type": "string"
        }
      ],
      "stateMutability": "view",
      "type": "function"
    },
    {
      "inputs": [],
      "name": "owner",
      "outputs": [
        {
          "internalType": "address",
          "name": "",
          "type": "address"
        }
      ],
      "stateMutability": "view",
      "type": "function"
    },
    {
      "inputs": [
        {
          "internalType": "uint256",
          "name": "tokenId",
          "type": "uint256"
        }
      ],
      "name": "ownerOf",
      "outputs": [
        {
          "internalType": "address",
          "name": "",
          "type": "address"
        }
      ],
      "stateMutability": "view",
      "type": "function"
    },
    {
      "inputs": [],
      "name": "renounceOwnership",
      "outputs": [],
      "stateMutability": "nonpayable",
      "type": "function"
    },
    {
      "inputs": [
        {
          "internalType": "address",
          "name": "from",
          "type": "address"
        },
        {
          "internalType": "address",
          "name": "to",
          "type": "address"
        },
        {
          "internalType": "uint256",
          "name": "tokenId",
          "type": "uint256"
        }
      ],
      "name": "safeTransferFrom",
      "outputs": [],
      "stateMutability": "nonpayable",
      "type": "function"
    },
    {
      "inputs": [
        {
          "internalType": "address",
          "name": "from",
          "type": "address"
        },
        {
          "internalType": "address",
          "name": "to",
          "type": "address"
        },
        {
          "internalType": "uint256",
          "name": "tokenId",
          "type": "uint256"
        },
        {
          "internalType": "bytes",
          "name": "_data",
          "type": "bytes"
        }
      ],
      "name": "safeTransferFrom",
      "outputs": [],
      "stateMutability": "nonpayable",
      "type": "function"
    },
    {
      "inputs": [
        {
          "internalType": "address",
          "name": "operator",
          "type": "address"
        },
        {
          "internalType": "bool",
          "name": "approved",
          "type": "bool"
        }
      ],
      "name": "setApprovalForAll",
      "outputs": [],
      "stateMutability": "nonpayable",
      "type": "function"
    },
    {
      "inputs": [
        {
          "internalType": "bytes4",
          "name": "interfaceId",
          "type": "bytes4"
        }
      ],
      "name": "supportsInterface",
      "outputs": [
        {
          "internalType": "bool",
          "name": "",
          "type": "bool"
        }
      ],
      "stateMutability": "view",
      "type": "function"
    },
    {
      "inputs": [],
      "name": "symbol",
      "outputs": [
        {
          "internalType": "string",
          "name": "",
          "type": "string"
        }
      ],
      "stateMutability": "view",
      "type": "function"
    },
    {
      "inputs": [
        {
          "internalType": "uint256",
          "name": "index",
          "type": "uint256"
        }
      ],
      "name": "tokenByIndex",
      "outputs": [
        {
          "internalType": "uint256",
          "name": "",
          "type": "uint256"
        }
      ],
      "stateMutability": "view",
      "type": "function"
    },
    {
      "inputs": [
        {
          "internalType": "address",
          "name": "owner",
          "type": "address"
        },
        {
          "internalType": "uint256",
          "name": "index",
          "type": "uint256"
        }
      ],
      "name": "tokenOfOwnerByIndex",
      "outputs": [
        {
          "internalType": "uint256",
          "name": "",
          "type": "uint256"
        }
      ],
      "stateMutability": "view",
      "type": "function"
    },
    {
      "inputs": [
        {
          "internalType": "uint256",
          "name": "_tokenId",
          "type": "uint256"
        }
      ],
      "name": "tokenURI",
      "outputs": [
        {
          "internalType": "string",
          "name": "",
          "type": "string"
        }
      ],
      "stateMutability": "view",
      "type": "function"
    },
    {
      "inputs": [],
      "name": "totalSupply",
      "outputs": [
        {
          "internalType": "uint256",
          "name": "",
          "type": "uint256"
        }
      ],
      "stateMutability": "view",
      "type": "function"
    },
    {
      "inputs": [
        {
          "internalType": "address",
          "name": "from",
          "type": "address"
        },
        {
          "internalType": "address",
          "name": "to",
          "type": "address"
        },
        {
          "internalType": "uint256",
          "name": "tokenId",
          "type": "uint256"
        }
      ],
      "name": "transferFrom",
      "outputs": [],
      "stateMutability": "nonpayable",
      "type": "function"
    },
    {
      "inputs": [
        {
          "internalType": "address",
          "name": "newOwner",
          "type": "address"
        }
      ],
      "name": "transferOwnership",
      "outputs": [],
      "stateMutability": "nonpayable",
      "type": "function"
    },
    {
      "inputs": [],
      "name": "baseTokenURI",
      "outputs": [
        {
          "internalType": "string",
          "name": "",
          "type": "string"
        }
      ],
      "stateMutability": "pure",
      "type": "function"
    },
    {
      "inputs": [
        {
          "internalType": "uint256",
          "name": "hashIPFS",
          "type": "uint256"
        },
        {
          "internalType": "string",
          "name": "Name",
          "type": "string"
        }
      ],
      "name": "createArtwork",
      "outputs": [
        {
          "internalType": "contract ArtWork",
          "name": "",
          "type": "address"
        }
      ],
      "stateMutability": "nonpayable",
      "type": "function"
    },
    {
      "inputs": [
        {
          "internalType": "uint256",
          "name": "hashIPFS",
          "type": "uint256"
        }
      ],
      "name": "checkArtwork",
      "outputs": [
        {
          "internalType": "bool",
          "name": "",
          "type": "bool"
        }
      ],
      "stateMutability": "view",
      "type": "function"
    }
  ],
  "bytecode": "0x60806040526000600c553480156200001657600080fd5b5060405162003acc38038062003acc833981810160405260208110156200003c57600080fd5b81019080805190602001909291905050506040518060400160405280600c81526020017f47424341727420546f6b656e00000000000000000000000000000000000000008152506040518060400160405280600381526020017f4742430000000000000000000000000000000000000000000000000000000000815250828282620000d46301ffc9a760e01b6200024c60201b60201c565b8160069080519060200190620000ec9291906200035d565b508060079080519060200190620001059291906200035d565b506200011e6380ac58cd60e01b6200024c60201b60201c565b62000136635b5e139f60e01b6200024c60201b60201c565b6200014e63780e9d6360e01b6200024c60201b60201c565b50506000620001626200035560201b60201c565b905080600a60006101000a81548173ffffffffffffffffffffffffffffffffffffffff021916908373ffffffffffffffffffffffffffffffffffffffff1602179055508073ffffffffffffffffffffffffffffffffffffffff16600073ffffffffffffffffffffffffffffffffffffffff167f8be0079c531659141344cd1fd0a4f28419497f9722a3daafe3b4186f6b6457e060405160405180910390a35080600b60006101000a81548173ffffffffffffffffffffffffffffffffffffffff021916908373ffffffffffffffffffffffffffffffffffffffff1602179055505050505062000403565b63ffffffff60e01b817bffffffffffffffffffffffffffffffffffffffffffffffffffffffff19161415620002e9576040517f08c379a000000000000000000000000000000000000000000000000000000000815260040180806020018281038252601c8152602001807f4552433136353a20696e76616c696420696e746572666163652069640000000081525060200191505060405180910390fd5b6001600080837bffffffffffffffffffffffffffffffffffffffffffffffffffffffff19167bffffffffffffffffffffffffffffffffffffffffffffffffffffffff1916815260200190815260200160002060006101000a81548160ff02191690831515021790555050565b600033905090565b828054600181600116156101000203166002900490600052602060002090601f016020900481019282601f10620003a057805160ff1916838001178555620003d1565b82800160010185558215620003d1579182015b82811115620003d0578251825591602001919060010190620003b3565b5b509050620003e09190620003e4565b5090565b5b80821115620003ff576000816000905550600101620003e5565b5090565b6136b980620004136000396000f3fe60806040523480156200001157600080fd5b5060043610620001785760003560e01c806370a0823111620000d5578063a22cb4651162000087578063a22cb465146200084e578063b88d4fde14620008a1578063c87b56dd14620009ac578063d547cfb71462000a59578063e985e9c51462000ae1578063f2fde38b1462000b5e5762000178565b806370a0823114620005ed578063715018a61462000648578063755edd1714620006545780638da5cb5b146200069b57806395d89b4114620006d15780639a8dea4014620007595762000178565b806323b872dd116200012f57806323b872dd146200037e5780632f745c5914620003ef57806342842e0e14620004545780634f6ccce714620004c55780636352211e146200050a5780636c0360eb14620005655762000178565b806301ffc9a7146200017d57806306fdde0314620001e3578063081812fc146200026b578063095ea7b314620002c657806318160ddd1462000317578063227f7adc1462000337575b600080fd5b620001cb600480360360208110156200019557600080fd5b8101908080357bffffffffffffffffffffffffffffffffffffffffffffffffffffffff1916906020019092919050505062000ba5565b60405180821515815260200191505060405180910390f35b620001ed62000c0c565b6040518080602001828103825283818151815260200191508051906020019080838360005b838110156200022f57808201518184015260208101905062000212565b50505050905090810190601f1680156200025d5780820380516001836020036101000a031916815260200191505b509250505060405180910390f35b6200029a600480360360208110156200028357600080fd5b810190808035906020019092919050505062000cb2565b604051808273ffffffffffffffffffffffffffffffffffffffff16815260200191505060405180910390f35b6200031560048036036040811015620002de57600080fd5b81019080803573ffffffffffffffffffffffffffffffffffffffff1690602001909291908035906020019092919050505062000d51565b005b6200032162000ea4565b6040518082815260200191505060405180910390f35b62000366600480360360208110156200034f57600080fd5b810190808035906020019092919050505062000eb7565b60405180821515815260200191505060405180910390f35b620003ed600480360360608110156200039657600080fd5b81019080803573ffffffffffffffffffffffffffffffffffffffff169060200190929190803573ffffffffffffffffffffffffffffffffffffffff1690602001909291908035906020019092919050505062000f35565b005b6200043e600480360360408110156200040757600080fd5b81019080803573ffffffffffffffffffffffffffffffffffffffff1690602001909291908035906020019092919050505062000fb3565b6040518082815260200191505060405180910390f35b620004c3600480360360608110156200046c57600080fd5b81019080803573ffffffffffffffffffffffffffffffffffffffff169060200190929190803573ffffffffffffffffffffffffffffffffffffffff1690602001909291908035906020019092919050505062001010565b005b620004f460048036036020811015620004dd57600080fd5b810190808035906020019092919050505062001032565b6040518082815260200191505060405180910390f35b62000539600480360360208110156200052257600080fd5b810190808035906020019092919050505062001057565b604051808273ffffffffffffffffffffffffffffffffffffffff16815260200191505060405180910390f35b6200056f62001091565b6040518080602001828103825283818151815260200191508051906020019080838360005b83811015620005b157808201518184015260208101905062000594565b50505050905090810190601f168015620005df5780820380516001836020036101000a031916815260200191505b509250505060405180910390f35b62000632600480360360208110156200060557600080fd5b81019080803573ffffffffffffffffffffffffffffffffffffffff16906020019092919050505062001137565b6040518082815260200191505060405180910390f35b6200065262001210565b005b62000699600480360360208110156200066c57600080fd5b81019080803573ffffffffffffffffffffffffffffffffffffffff16906020019092919050505062001385565b005b620006a562001461565b604051808273ffffffffffffffffffffffffffffffffffffffff16815260200191505060405180910390f35b620006db6200148b565b6040518080602001828103825283818151815260200191508051906020019080838360005b838110156200071d57808201518184015260208101905062000700565b50505050905090810190601f1680156200074b5780820380516001836020036101000a031916815260200191505b509250505060405180910390f35b62000822600480360360408110156200077157600080fd5b8101908080359060200190929190803590602001906401000000008111156200079957600080fd5b820183602082011115620007ac57600080fd5b80359060200191846001830284011164010000000083111715620007cf57600080fd5b91908080601f016020809104026020016040519081016040528093929190818152602001838380828437600081840152601f19601f82011690508083019250505050505050919291929050505062001531565b604051808273ffffffffffffffffffffffffffffffffffffffff16815260200191505060405180910390f35b6200089f600480360360408110156200086657600080fd5b81019080803573ffffffffffffffffffffffffffffffffffffffff16906020019092919080351515906020019092919050505062001639565b005b620009aa60048036036080811015620008b957600080fd5b81019080803573ffffffffffffffffffffffffffffffffffffffff169060200190929190803573ffffffffffffffffffffffffffffffffffffffff16906020019092919080359060200190929190803590602001906401000000008111156200092157600080fd5b8201836020820111156200093457600080fd5b803590602001918460018302840111640100000000831117156200095757600080fd5b91908080601f016020809104026020016040519081016040528093929190818152602001838380828437600081840152601f19601f820116905080830192505050505050509192919290505050620017f6565b005b620009db60048036036020811015620009c457600080fd5b810190808035906020019092919050505062001876565b6040518080602001828103825283818151815260200191508051906020019080838360005b8381101562000a1d57808201518184015260208101905062000a00565b50505050905090810190601f16801562000a4b5780820380516001836020036101000a031916815260200191505b509250505060405180910390f35b62000a6362001954565b6040518080602001828103825283818151815260200191508051906020019080838360005b8381101562000aa557808201518184015260208101905062000a88565b50505050905090810190601f16801562000ad35780820380516001836020036101000a031916815260200191505b509250505060405180910390f35b62000b466004803603604081101562000af957600080fd5b81019080803573ffffffffffffffffffffffffffffffffffffffff169060200190929190803573ffffffffffffffffffffffffffffffffffffffff16906020019092919050505062001975565b60405180821515815260200191505060405180910390f35b62000ba36004803603602081101562000b7657600080fd5b81019080803573ffffffffffffffffffffffffffffffffffffffff16906020019092919050505062001a97565b005b6000806000837bffffffffffffffffffffffffffffffffffffffffffffffffffffffff19167bffffffffffffffffffffffffffffffffffffffffffffffffffffffff1916815260200190815260200160002060009054906101000a900460ff169050919050565b606060068054600181600116156101000203166002900480601f01602080910402602001604051908101604052809291908181526020018280546001816001161561010002031660029004801562000ca85780601f1062000c7c5761010080835404028352916020019162000ca8565b820191906000526020600020905b81548152906001019060200180831162000c8a57829003601f168201915b5050505050905090565b600062000cbf8262001c93565b62000d16576040517f08c379a000000000000000000000000000000000000000000000000000000000815260040180806020018281038252602c815260200180620035a4602c913960400191505060405180910390fd5b6004600083815260200190815260200160002060009054906101000a900473ffffffffffffffffffffffffffffffffffffffff169050919050565b600062000d5e8262001057565b90508073ffffffffffffffffffffffffffffffffffffffff168373ffffffffffffffffffffffffffffffffffffffff16141562000de7576040517f08c379a0000000000000000000000000000000000000000000000000000000008152600401808060200182810382526021815260200180620036326021913960400191505060405180910390fd5b8073ffffffffffffffffffffffffffffffffffffffff1662000e0862001cb2565b73ffffffffffffffffffffffffffffffffffffffff16148062000e3c575062000e3b8162000e3562001cb2565b62001cba565b5b62000e93576040517f08c379a0000000000000000000000000000000000000000000000000000000008152600401808060200182810382526038815260200180620034f76038913960400191505060405180910390fd5b62000e9f838362001d4e565b505050565b600062000eb2600262001e09565b905090565b60008073ffffffffffffffffffffffffffffffffffffffff16600d600084815260200190815260200160002060009054906101000a900473ffffffffffffffffffffffffffffffffffffffff1673ffffffffffffffffffffffffffffffffffffffff16141562000f2b576001905062000f30565b600090505b919050565b62000f4a62000f4362001cb2565b8262001e20565b62000fa1576040517f08c379a0000000000000000000000000000000000000000000000000000000008152600401808060200182810382526031815260200180620036536031913960400191505060405180910390fd5b62000fae83838362001f20565b505050565b60006200100882600160008673ffffffffffffffffffffffffffffffffffffffff1673ffffffffffffffffffffffffffffffffffffffff1681526020019081526020016000206200217390919063ffffffff16565b905092915050565b6200102d83838360405180602001604052806000815250620017f6565b505050565b6000806200104b8360026200218f90919063ffffffff16565b50905080915050919050565b60006200108a8260405180606001604052806029815260200162003559602991396002620021bd9092919063ffffffff16565b9050919050565b606060098054600181600116156101000203166002900480601f0160208091040260200160405190810160405280929190818152602001828054600181600116156101000203166002900480156200112d5780601f1062001101576101008083540402835291602001916200112d565b820191906000526020600020905b8154815290600101906020018083116200110f57829003601f168201915b5050505050905090565b60008073ffffffffffffffffffffffffffffffffffffffff168273ffffffffffffffffffffffffffffffffffffffff161415620011c0576040517f08c379a000000000000000000000000000000000000000000000000000000000815260040180806020018281038252602a8152602001806200352f602a913960400191505060405180910390fd5b62001209600160008473ffffffffffffffffffffffffffffffffffffffff1673ffffffffffffffffffffffffffffffffffffffff168152602001908152602001600020620021de565b9050919050565b6200121a62001cb2565b73ffffffffffffffffffffffffffffffffffffffff166200123a62001461565b73ffffffffffffffffffffffffffffffffffffffff1614620012c4576040517f08c379a00000000000000000000000000000000000000000000000000000000081526004018080602001828103825260208152602001807f4f776e61626c653a2063616c6c6572206973206e6f7420746865206f776e657281525060200191505060405180910390fd5b600073ffffffffffffffffffffffffffffffffffffffff16600a60009054906101000a900473ffffffffffffffffffffffffffffffffffffffff1673ffffffffffffffffffffffffffffffffffffffff167f8be0079c531659141344cd1fd0a4f28419497f9722a3daafe3b4186f6b6457e060405160405180910390a36000600a60006101000a81548173ffffffffffffffffffffffffffffffffffffffff021916908373ffffffffffffffffffffffffffffffffffffffff160217905550565b6200138f62001cb2565b73ffffffffffffffffffffffffffffffffffffffff16620013af62001461565b73ffffffffffffffffffffffffffffffffffffffff161462001439576040517f08c379a00000000000000000000000000000000000000000000000000000000081526004018080602001828103825260208152602001807f4f776e61626c653a2063616c6c6572206973206e6f7420746865206f776e657281525060200191505060405180910390fd5b600062001445620021f5565b90506200145382826200221e565b6200145d6200223e565b5050565b6000600a60009054906101000a900473ffffffffffffffffffffffffffffffffffffffff16905090565b606060078054600181600116156101000203166002900480601f016020809104026020016040519081016040528092919081815260200182805460018160011615610100020316600290048015620015275780601f10620014fb5761010080835404028352916020019162001527565b820191906000526020600020905b8154815290600101906020018083116200150957829003601f168201915b5050505050905090565b60008083836040516200154490620030f1565b8083815260200180602001828103825283818151815260200191508051906020019080838360005b83811015620015895780820151818401526020810190506200156c565b50505050905090810190601f168015620015b75780820380516001836020036101000a031916815260200191505b509350505050604051809103906000f080158015620015da573d6000803e3d6000fd5b50905080600d600086815260200190815260200160002060006101000a81548173ffffffffffffffffffffffffffffffffffffffff021916908373ffffffffffffffffffffffffffffffffffffffff1602179055508091505092915050565b6200164362001cb2565b73ffffffffffffffffffffffffffffffffffffffff168273ffffffffffffffffffffffffffffffffffffffff161415620016e5576040517f08c379a00000000000000000000000000000000000000000000000000000000081526004018080602001828103825260198152602001807f4552433732313a20617070726f766520746f2063616c6c65720000000000000081525060200191505060405180910390fd5b8060056000620016f462001cb2565b73ffffffffffffffffffffffffffffffffffffffff1673ffffffffffffffffffffffffffffffffffffffff16815260200190815260200160002060008473ffffffffffffffffffffffffffffffffffffffff1673ffffffffffffffffffffffffffffffffffffffff16815260200190815260200160002060006101000a81548160ff0219169083151502179055508173ffffffffffffffffffffffffffffffffffffffff16620017a362001cb2565b73ffffffffffffffffffffffffffffffffffffffff167f17307eab39ab6107e8899845ad3d59bd9653f200f220920489ca2b5937696c318360405180821515815260200191505060405180910390a35050565b6200180b6200180462001cb2565b8362001e20565b62001862576040517f08c379a0000000000000000000000000000000000000000000000000000000008152600401808060200182810382526031815260200180620036536031913960400191505060405180910390fd5b620018708484848462002252565b50505050565b60606200188262001954565b6200188d83620022ca565b6040516020018083805190602001908083835b60208310620018c55780518252602082019150602081019050602083039250620018a0565b6001836020036101000a03801982511681845116808217855250505050505090500182805190602001908083835b60208310620019185780518252602082019150602081019050602083039250620018f3565b6001836020036101000a038019825116818451168082178552505050505050905001925050506040516020818303038152906040529050919050565b6060604051806060016040528060398152602001620035f960399139905090565b600080600b60009054906101000a900473ffffffffffffffffffffffffffffffffffffffff1690508273ffffffffffffffffffffffffffffffffffffffff168173ffffffffffffffffffffffffffffffffffffffff1663c4552791866040518263ffffffff1660e01b8152600401808273ffffffffffffffffffffffffffffffffffffffff16815260200191505060206040518083038186803b15801562001a1c57600080fd5b505afa15801562001a31573d6000803e3d6000fd5b505050506040513d602081101562001a4857600080fd5b810190808051906020019092919050505073ffffffffffffffffffffffffffffffffffffffff16141562001a8157600191505062001a91565b62001a8d848462001cba565b9150505b92915050565b62001aa162001cb2565b73ffffffffffffffffffffffffffffffffffffffff1662001ac162001461565b73ffffffffffffffffffffffffffffffffffffffff161462001b4b576040517f08c379a00000000000000000000000000000000000000000000000000000000081526004018080602001828103825260208152602001807f4f776e61626c653a2063616c6c6572206973206e6f7420746865206f776e657281525060200191505060405180910390fd5b600073ffffffffffffffffffffffffffffffffffffffff168173ffffffffffffffffffffffffffffffffffffffff16141562001bd3576040517f08c379a00000000000000000000000000000000000000000000000000000000081526004018080602001828103825260268152602001806200345b6026913960400191505060405180910390fd5b8073ffffffffffffffffffffffffffffffffffffffff16600a60009054906101000a900473ffffffffffffffffffffffffffffffffffffffff1673ffffffffffffffffffffffffffffffffffffffff167f8be0079c531659141344cd1fd0a4f28419497f9722a3daafe3b4186f6b6457e060405160405180910390a380600a60006101000a81548173ffffffffffffffffffffffffffffffffffffffff021916908373ffffffffffffffffffffffffffffffffffffffff16021790555050565b600062001cab8260026200241d90919063ffffffff16565b9050919050565b600033905090565b6000600560008473ffffffffffffffffffffffffffffffffffffffff1673ffffffffffffffffffffffffffffffffffffffff16815260200190815260200160002060008373ffffffffffffffffffffffffffffffffffffffff1673ffffffffffffffffffffffffffffffffffffffff16815260200190815260200160002060009054906101000a900460ff16905092915050565b816004600083815260200190815260200160002060006101000a81548173ffffffffffffffffffffffffffffffffffffffff021916908373ffffffffffffffffffffffffffffffffffffffff160217905550808273ffffffffffffffffffffffffffffffffffffffff1662001dc38362001057565b73ffffffffffffffffffffffffffffffffffffffff167f8c5be1e5ebec7d5bd14f71427d1e84f3dd0314c0f7b2291e5b200ac8c7c3b92560405160405180910390a45050565b600062001e198260000162002439565b9050919050565b600062001e2d8262001c93565b62001e84576040517f08c379a000000000000000000000000000000000000000000000000000000000815260040180806020018281038252602c815260200180620034cb602c913960400191505060405180910390fd5b600062001e918362001057565b90508073ffffffffffffffffffffffffffffffffffffffff168473ffffffffffffffffffffffffffffffffffffffff16148062001f0357508373ffffffffffffffffffffffffffffffffffffffff1662001eeb8462000cb2565b73ffffffffffffffffffffffffffffffffffffffff16145b8062001f17575062001f16818562001cba565b5b91505092915050565b8273ffffffffffffffffffffffffffffffffffffffff1662001f428262001057565b73ffffffffffffffffffffffffffffffffffffffff161462001fb0576040517f08c379a0000000000000000000000000000000000000000000000000000000008152600401808060200182810382526029815260200180620035d06029913960400191505060405180910390fd5b600073ffffffffffffffffffffffffffffffffffffffff168273ffffffffffffffffffffffffffffffffffffffff16141562002038576040517f08c379a0000000000000000000000000000000000000000000000000000000008152600401808060200182810382526024815260200180620034816024913960400191505060405180910390fd5b620020458383836200244a565b6200205260008262001d4e565b620020a581600160008673ffffffffffffffffffffffffffffffffffffffff1673ffffffffffffffffffffffffffffffffffffffff1681526020019081526020016000206200244f90919063ffffffff16565b50620020f981600160008573ffffffffffffffffffffffffffffffffffffffff1673ffffffffffffffffffffffffffffffffffffffff1681526020019081526020016000206200246b90919063ffffffff16565b506200211281836002620024879092919063ffffffff16565b50808273ffffffffffffffffffffffffffffffffffffffff168473ffffffffffffffffffffffffffffffffffffffff167fddf252ad1be2c89b69c2b068fc378daa952ba7f163c4a11628f55a4df523b3ef60405160405180910390a4505050565b6000620021848360000183620024be565b60001c905092915050565b600080600080620021a4866000018662002544565b915091508160001c8160001c9350935050509250929050565b6000620021d2846000018460001b84620025e0565b60001c90509392505050565b6000620021ee82600001620026db565b9050919050565b600080600062002209600c546001620026ec565b9150915081156200221657fe5b809250505090565b6200223a8282604051806020016040528060008152506200271d565b5050565b600c60008154809291906001019190505550565b6200225f84848462001f20565b6200226d8484848462002794565b620022c4576040517f08c379a0000000000000000000000000000000000000000000000000000000008152600401808060200182810382526032815260200180620034296032913960400191505060405180910390fd5b50505050565b6060600082141562002314576040518060400160405280600181526020017f3000000000000000000000000000000000000000000000000000000000000000815250905062002418565b600082905060005b6000821462002341578080600101915050600a82816200233857fe5b0491506200231c565b60608167ffffffffffffffff811180156200235b57600080fd5b506040519080825280601f01601f1916602001820160405280156200238f5781602001600182028036833780820191505090505b50905060006001830390508593505b600084146200241057600a8481620023b257fe5b0660300160f81b82828060019003935081518110620023cd57fe5b60200101907effffffffffffffffffffffffffffffffffffffffffffffffffffffffffffff1916908160001a905350600a84816200240757fe5b0493506200239e565b819450505050505b919050565b600062002431836000018360001b620029ba565b905092915050565b600081600001805490509050919050565b505050565b600062002463836000018360001b620029dd565b905092915050565b60006200247f836000018360001b62002aca565b905092915050565b6000620024b5846000018460001b8473ffffffffffffffffffffffffffffffffffffffff1660001b62002b3e565b90509392505050565b60008183600001805490501162002521576040517f08c379a0000000000000000000000000000000000000000000000000000000008152600401808060200182810382526022815260200180620034076022913960400191505060405180910390fd5b8260000182815481106200253157fe5b9060005260206000200154905092915050565b60008082846000018054905011620025a8576040517f08c379a0000000000000000000000000000000000000000000000000000000008152600401808060200182810382526022815260200180620035826022913960400191505060405180910390fd5b6000846000018481548110620025ba57fe5b906000526020600020906002020190508060000154816001015492509250509250929050565b60008084600101600085815260200190815260200160002054905060008114158390620026ab576040517f08c379a00000000000000000000000000000000000000000000000000000000081526004018080602001828103825283818151815260200191508051906020019080838360005b838110156200266f57808201518184015260208101905062002652565b50505050905090810190601f1680156200269d5780820380516001836020036101000a031916815260200191505b509250505060405180910390fd5b50846000016001820381548110620026bf57fe5b9060005260206000209060020201600101549150509392505050565b600081600001805490509050919050565b60008060008385019050848110156200270d57600080925092505062002716565b60018192509250505b9250929050565b62002729838362002c1d565b62002738600084848462002794565b6200278f576040517f08c379a0000000000000000000000000000000000000000000000000000000008152600401808060200182810382526032815260200180620034296032913960400191505060405180910390fd5b505050565b6000620027b78473ffffffffffffffffffffffffffffffffffffffff1662002e1b565b620027c65760019050620029b2565b60606200293863150b7a0260e01b620027de62001cb2565b888787604051602401808573ffffffffffffffffffffffffffffffffffffffff1681526020018473ffffffffffffffffffffffffffffffffffffffff16815260200183815260200180602001828103825283818151815260200191508051906020019080838360005b838110156200286457808201518184015260208101905062002847565b50505050905090810190601f168015620028925780820380516001836020036101000a031916815260200191505b5095505050505050604051602081830303815290604052907bffffffffffffffffffffffffffffffffffffffffffffffffffffffff19166020820180517bffffffffffffffffffffffffffffffffffffffffffffffffffffffff838183161783525050505060405180606001604052806032815260200162003429603291398773ffffffffffffffffffffffffffffffffffffffff1662002e2e9092919063ffffffff16565b905060008180602001905160208110156200295257600080fd5b8101908080519060200190929190505050905063150b7a0260e01b7bffffffffffffffffffffffffffffffffffffffffffffffffffffffff1916817bffffffffffffffffffffffffffffffffffffffffffffffffffffffff191614925050505b949350505050565b600080836001016000848152602001908152602001600020541415905092915050565b6000808360010160008481526020019081526020016000205490506000811462002abe576000600182039050600060018660000180549050039050600086600001828154811062002a2a57fe5b906000526020600020015490508087600001848154811062002a4857fe5b906000526020600020018190555060018301876001016000838152602001908152602001600020819055508660000180548062002a8157fe5b6001900381819060005260206000200160009055905586600101600087815260200190815260200160002060009055600194505050505062002ac4565b60009150505b92915050565b600062002ad8838362002e48565b62002b3357826000018290806001815401808255809150506001900390600052602060002001600090919091909150558260000180549050836001016000848152602001908152602001600020819055506001905062002b38565b600090505b92915050565b600080846001016000858152602001908152602001600020549050600081141562002be75784600001604051806040016040528086815260200185815250908060018154018082558091505060019003906000526020600020906002020160009091909190915060008201518160000155602082015181600101555050846000018054905085600101600086815260200190815260200160002081905550600191505062002c16565b8285600001600183038154811062002bfb57fe5b90600052602060002090600202016001018190555060009150505b9392505050565b600073ffffffffffffffffffffffffffffffffffffffff168273ffffffffffffffffffffffffffffffffffffffff16141562002cc1576040517f08c379a00000000000000000000000000000000000000000000000000000000081526004018080602001828103825260208152602001807f4552433732313a206d696e7420746f20746865207a65726f206164647265737381525060200191505060405180910390fd5b62002ccc8162001c93565b1562002d40576040517f08c379a000000000000000000000000000000000000000000000000000000000815260040180806020018281038252601c8152602001807f4552433732313a20746f6b656e20616c7265616479206d696e7465640000000081525060200191505060405180910390fd5b62002d4e600083836200244a565b62002da181600160008573ffffffffffffffffffffffffffffffffffffffff1673ffffffffffffffffffffffffffffffffffffffff1681526020019081526020016000206200246b90919063ffffffff16565b5062002dba81836002620024879092919063ffffffff16565b50808273ffffffffffffffffffffffffffffffffffffffff16600073ffffffffffffffffffffffffffffffffffffffff167fddf252ad1be2c89b69c2b068fc378daa952ba7f163c4a11628f55a4df523b3ef60405160405180910390a45050565b600080823b905060008111915050919050565b606062002e3f848460008562002e6b565b90509392505050565b600080836001016000848152602001908152602001600020541415905092915050565b60608247101562002ec8576040517f08c379a0000000000000000000000000000000000000000000000000000000008152600401808060200182810382526026815260200180620034a56026913960400191505060405180910390fd5b62002ed38562002e1b565b62002f46576040517f08c379a000000000000000000000000000000000000000000000000000000000815260040180806020018281038252601d8152602001807f416464726573733a2063616c6c20746f206e6f6e2d636f6e747261637400000081525060200191505060405180910390fd5b600060608673ffffffffffffffffffffffffffffffffffffffff1685876040518082805190602001908083835b6020831062002f98578051825260208201915060208101905060208303925062002f73565b6001836020036101000a03801982511681845116808217855250505050505090500191505060006040518083038185875af1925050503d806000811462002ffc576040519150601f19603f3d011682016040523d82523d6000602084013e62003001565b606091505b5091509150620030138282866200301f565b92505050949350505050565b606083156200303157829050620030ea565b600083511115620030455782518084602001fd5b816040517f08c379a00000000000000000000000000000000000000000000000000000000081526004018080602001828103825283818151815260200191508051906020019080838360005b83811015620030ae57808201518184015260208101905062003091565b50505050905090810190601f168015620030dc5780820380516001836020036101000a031916815260200191505b509250505060405180910390fd5b9392505050565b61030780620031008339019056fe608060405234801561001057600080fd5b506040516103073803806103078339818101604052604081101561003357600080fd5b81019080805190602001909291908051604051939291908464010000000082111561005d57600080fd5b8382019150602082018581111561007357600080fd5b825186600182028301116401000000008211171561009057600080fd5b8083526020830192505050908051906020019080838360005b838110156100c45780820151818401526020810190506100a9565b50505050905090810190601f1680156100f15780820380516001836020036101000a031916815260200191505b5060405250505061010061017f565b60405180606001604052803373ffffffffffffffffffffffffffffffffffffffff16815260200183815260200184815250905080600001516000806101000a81548173ffffffffffffffffffffffffffffffffffffffff021916908373ffffffffffffffffffffffffffffffffffffffff1602179055505050506101b6565b6040518060600160405280600073ffffffffffffffffffffffffffffffffffffffff16815260200160608152602001600081525090565b610142806101c56000396000f3fe608060405234801561001057600080fd5b506004361061002b5760003560e01c806313af403514610030575b600080fd5b6100726004803603602081101561004657600080fd5b81019080803573ffffffffffffffffffffffffffffffffffffffff169060200190929190505050610074565b005b3373ffffffffffffffffffffffffffffffffffffffff1660008054906101000a900473ffffffffffffffffffffffffffffffffffffffff1673ffffffffffffffffffffffffffffffffffffffff16141561010957806000806101000a81548173ffffffffffffffffffffffffffffffffffffffff021916908373ffffffffffffffffffffffffffffffffffffffff1602179055505b5056fea2646970667358221220b6edbf6f40368b10d6e86c8cdd5581aaeb10c10eb5f216f1a2e3361c12ea421b64736f6c63430007010033456e756d657261626c655365743a20696e646578206f7574206f6620626f756e64734552433732313a207472616e7366657220746f206e6f6e20455243373231526563656976657220696d706c656d656e7465724f776e61626c653a206e6577206f776e657220697320746865207a65726f20616464726573734552433732313a207472616e7366657220746f20746865207a65726f2061646472657373416464726573733a20696e73756666696369656e742062616c616e636520666f722063616c6c4552433732313a206f70657261746f7220717565727920666f72206e6f6e6578697374656e7420746f6b656e4552433732313a20617070726f76652063616c6c6572206973206e6f74206f776e6572206e6f7220617070726f76656420666f7220616c6c4552433732313a2062616c616e636520717565727920666f7220746865207a65726f20616464726573734552433732313a206f776e657220717565727920666f72206e6f6e6578697374656e7420746f6b656e456e756d657261626c654d61703a20696e646578206f7574206f6620626f756e64734552433732313a20617070726f76656420717565727920666f72206e6f6e6578697374656e7420746f6b656e4552433732313a207472616e73666572206f6620746f6b656e2074686174206973206e6f74206f776e68747470733a2f2f6f70656e7365612d6372656174757265732d6170692e6865726f6b756170702e636f6d2f6170692f63726561747572652f4552433732313a20617070726f76616c20746f2063757272656e74206f776e65724552433732313a207472616e736665722063616c6c6572206973206e6f74206f776e6572206e6f7220617070726f766564a26469706673582212203bca6fcd214be42269105115c9babb1f3b1851b1c9b8798a932fdefb5d3a5d0c64736f6c63430007010033",
  "immutableReferences": {},
  "source": "// SPDX-License-Identifier: MIT\npragma solidity ^0.7.1;\n\nimport \"@openzeppelin/contracts/access/Ownable.sol\";\nimport \"./ERC721Token.sol\";\n\ncontract ArtWork {\n    struct Art {\n        address artist;\n        string name;\n        uint hashIPFS;\n    }\n    address owner;\n\n    \n    constructor(uint ipfsHash, string memory name_) {\n        Art memory _art = Art({\n            artist: msg.sender, \n            name: name_,\n            hashIPFS: ipfsHash\n        });\n    \n        owner = _art.artist;\n    }\n \n    function setOwner(address newOwner) public {\n        if(owner == msg.sender) {\n            owner = newOwner;\n        }\n    }\n}\n\ncontract NFTArt is ERC721Token {\n    mapping (uint => ArtWork) private artworks;\n    address private artist;\n\n    constructor(address _proxyRegistryAddress)\n        ERC721Token(\"GBCArt Token\", \"GBC\", _proxyRegistryAddress){}\n\n    function baseTokenURI() public pure override returns (string memory) {\n        return \"https://opensea-creatures-api.herokuapp.com/api/creature/\";\n    }\n\n     function createArtwork(uint hashIPFS, string memory Name) public returns (ArtWork) {\n        ArtWork artContract = new ArtWork(hashIPFS, Name);\n        artworks[hashIPFS] = artContract;\n        return artContract;\n    }\n\n    function checkArtwork(uint hashIPFS) public view returns(bool) {\n        // ArtWork expectedOriginal = ArtWork(0x0, \"expectedOriginal\");\n        \n        if(artworks[hashIPFS] == ArtWork(address(0x00))) {\n            return true;\n        }\n        return false;\n    }\n}\n",
  "sourcePath": "/Users/mymac/Study/Blockchain Dev - George Brown college/Winter 2021/Design Patterns - Blockchain/published-workspace/nft-lab/contracts/NFTArt.sol",
  "compiler": {
    "name": "solc",
    "version": "0.7.1+commit.f4a555be.Emscripten.clang"
  },
  "schemaVersion": "3.3.3",
  "updatedAt": "2021-02-18T22:30:10.016Z",
  "devdoc": {
    "kind": "dev",
    "methods": {
      "approve(address,uint256)": {
        "details": "See {IERC721-approve}."
      },
      "balanceOf(address)": {
        "details": "See {IERC721-balanceOf}."
      },
      "baseURI()": {
        "details": "Returns the base URI set via {_setBaseURI}. This will be automatically added as a prefix in {tokenURI} to each token's URI, or to the token ID if no specific URI is set for that token ID."
      },
      "getApproved(uint256)": {
        "details": "See {IERC721-getApproved}."
      },
      "mintTo(address)": {
        "details": "Mints a token to an address with a tokenURI.",
        "params": {
          "_to": "address of the future owner of the token"
        }
      },
      "name()": {
        "details": "See {IERC721Metadata-name}."
      },
      "owner()": {
        "details": "Returns the address of the current owner."
      },
      "ownerOf(uint256)": {
        "details": "See {IERC721-ownerOf}."
      },
      "renounceOwnership()": {
        "details": "Leaves the contract without owner. It will not be possible to call `onlyOwner` functions anymore. Can only be called by the current owner. NOTE: Renouncing ownership will leave the contract without an owner, thereby removing any functionality that is only available to the owner."
      },
      "safeTransferFrom(address,address,uint256)": {
        "details": "See {IERC721-safeTransferFrom}."
      },
      "safeTransferFrom(address,address,uint256,bytes)": {
        "details": "See {IERC721-safeTransferFrom}."
      },
      "setApprovalForAll(address,bool)": {
        "details": "See {IERC721-setApprovalForAll}."
      },
      "supportsInterface(bytes4)": {
        "details": "See {IERC165-supportsInterface}. Time complexity O(1), guaranteed to always use less than 30 000 gas."
      },
      "symbol()": {
        "details": "See {IERC721Metadata-symbol}."
      },
      "tokenByIndex(uint256)": {
        "details": "See {IERC721Enumerable-tokenByIndex}."
      },
      "tokenOfOwnerByIndex(address,uint256)": {
        "details": "See {IERC721Enumerable-tokenOfOwnerByIndex}."
      },
      "totalSupply()": {
        "details": "See {IERC721Enumerable-totalSupply}."
      },
      "transferFrom(address,address,uint256)": {
        "details": "See {IERC721-transferFrom}."
      },
      "transferOwnership(address)": {
        "details": "Transfers ownership of the contract to a new account (`newOwner`). Can only be called by the current owner."
      }
    },
    "version": 1
  },
  "userdoc": {
    "kind": "user",
    "methods": {
      "isApprovedForAll(address,address)": {
        "notice": "Override isApprovedForAll to whitelist user's OpenSea proxy accounts to enable gas-less listings."
      }
    },
    "version": 1
  }
}